:020000040800F2
:106000000810002089A70008F54A0308D962000893
:10601000D9620008FD4A0308054B0308D96200084D
:10602000D9620008D9620008D9620008D962000864
:10603000094B0308387D0408D9620008D9620008BA
:10604000D9620008D9620008D9620008D962000844
:10605000D9620008D9620008D9620008D962000834
:10606000D9620008D9620008D9620008D962000824
:10607000D9620008D9620008D9620008D962000814
:10608000D9620008D9620008D9620008D962000804
:10609000D907020871070208D9620008D96200080E
:1060A000D9620008D9620008D9620008D9620008E4
:1060B000D9620008D9620008D9620008D9620008D4
:1060C000D9620008D9620008D96200081F6400087C
:1060D000D9620008D9620008D9620008AD630008DF
:1060E00089630008D9620008D9620008D9620008F3
:1060F000D9620008999D030889A60308CBCC030840
:10610000C7CC0308FD9D0308E1CC0308CFCC0308EE
:1061100059A60308D3CC0308C9A6030831A703086E
:10612000D9620008D9620008D9620008D962000863
:106130005BD40008D9620008D9620008D96200085F
:10614000D9620008D9620008D9620008D962000843
:10615000D9620008D9620008D9620008D962000833
:10616000D9620008D9620008D9620008D962000823
:10617000D9620008D9620008D9620008D962000813
:10618000D9620008D9620008D962000871DB0308EF
:1061900041920308D9620008B7CC0308BDCC0308BC
:1061A000D9620008D9620008D9620008D9620008E3
:0461B000D9620008A8
:1061B400F0B5114A114C124E00F00105E3695F0776
:1061C40013D40DB9334213D103EA00078F4207D128
:1061D4000B4A1A40002A0CBF00206FF00100F0BDEA
:1061E400013AEBD16FF00200F9E74FF0FF30F6E728
:1061F4006FF00100F3E700BF8096980000000350A1
:10620400020001002DE9F84F16464FF48032274B67
:10621400274D9A66EB69074603EA020841F6713393
:106224000122EB63234BDFF89490DA600EB9304619
:1062340029E007F5005404EA09046F61E41BEB69E3
:10624400B44228BF34465B072DD48B465BF8043B2D
:1062540001EB040AAB61D3450ED1042300212120B4
:106264002B61FFF7A5FF70B92120FFF7A1FF50B9FB
:1062740059462744361BD9E708210846FFF798FFFB
:1062840068B104232B6101220B4BDA60B8F1000FD3
:1062940003D00022A3F50053DA63BDE8F88F5BF85E
:1062A400043BAB61D7E74FF0FF30ECE700900050C0
:1062B40000000350001003500020035000E0FFFFD3
:1062D000013800D0FCE77047FEE703681878704784
:1062E00010B503681A78022A1ED09A79022A19D1A9
:1062F00059790F2916D8EFF31184302282F31188CF
:1063000001220A488A40C0F82024C0F82424002032
:10631000074A42F8310002EBC102506084F3118851
:10632000BFF36F8F02221A7010BD00BF00E0035050
:1063300008100020F8B504460127124D0CB314F0E4
:1063400001000BD0002024F0010405EBC002166808
:10635000002EF3D05168C0B2B047EFE722460130BB
:1063600020284FEA520201D0D307F8D507FA00F2ED
:106370000F2824EA0204E8D9421E05EBC2021038B5
:10638000E5E7F8BD08100020074BD3F82404D3F844
:10639000202403F50053104000F0553020F0A040B9
:1063A000C3F82004C6E700BF00C00350074BD3F872
:1063B0002404D3F8202403F50053104000F0AA3041
:1063C00020F02040C3F82004B4E700BF00C0035011
:1063D0000122437801789A4030235943014B5A50A7
:1063E000704700BF40F0035010B502460378407874
:1063F000EFF31184302181F311884B4303F1A04363
:1064000003F570331B6CC34003F0010084F3118863
:10641000BFF36F8F93780BB980F0010010BD1A4B5A
:106420002DE9F0411F6D5B6D1F4000D5FEE7012691
:106430000025164CDFF85C8037421CD0C8F850604D
:106440002368C3B1A168284601316268A1609847FA
:10645000637B012B0FD170B90D4B03EB451393F800
:106460007C2160F3410283F87C2193F88C2160F356
:10647000410283F88C210135082D4FEA460604F1CC
:106480001004D9D1BDE8F08100000450F8100020BC
:106490000810002000200450416C436910B5DA1C3C
:1064A000A1F11404B2FBF4F203EBC2000330B0FB21
:1064B000F4F0B1F5805F00F1010002D1012828BF9E
:1064C0000120013010BD38B505460C46FFF7E4FF4A
:1064D0006B6CA3F11402B3F5805F02FB00F005D1F1
:1064E00040F6E8736969994288BFCC30E31DB3FB7D
:1064F000F2F3013304EBC304204438BD38B505463C
:1065000044692146FFF7DFFF6A6CE31D143AB3FBD1
:10651000F2F3AA69144404EBC3040C34204438BDDC
:1065200073B506460D460024F36B01225B6901A991
:1065300028199847019B013309D1736C04346219FF
:106540006A405B421A42EFD0204602B070BD002480
:10655000FAE7D01E009B42424241187E824211D18E
:106560001A688A420ED85A688A420BD35A69013295
:106570005A61D3E9030282423FBF986840F8221073
:1065800001321A610120704700234FF0FF3230B50D
:1065900044689C4202D10023037230BD016801EBC4
:1065A000C30541F833206A600133F2E70023F0B5F8
:1065B00045689D4210D00468DF0054F8332004EB96
:1065C000C306B2F1FF3F08D0C2F31302914204D1D7
:1065D0004FF0FF33E3517360F0BD0133E9E710B5CD
:1065E000032A029C07D1A26A5340626C52421342B2
:1065F00001D1FFF7DBFF012010BD0023F0B5456896
:106600009D4202D14FF0FF300EE00468DE0054F8E6
:106610003340671C09D0C4F31307B94205D1240DD8
:106620001470036833445868F0BD0133E8E773B56C
:10663000164600F108040D46204609680DF10702D0
:10664000FFF7DBFF032E05D16B68834202D12046A2
:10665000FFF7ACFF012002B070BD00BF2DE9F04391
:10666000466886B3056898464FF0000CA946AE46CA
:1066700055F83C400CF1010CC4F31307013401D070
:10668000B94217D066450EF1080EF1D12F4600240D
:1066900003E0A64207F1080712D055F83430013460
:1066A0000133F6D1C1F3130141EA0851C7E90012E1
:1066B000BDE8F08341EA0851CEE90012BDE8F0835D
:1066C000B8F1030F03D101230372BDE8F083002367
:1066D00003E09E4209F10809F5D055F83340013333
:1066E000C4F30754032CF4D1C1F3130343EA085352
:1066F000C9E90032BDE8F08308B508301346D1E996
:106700000012FFF7ABFF012008BD4FF48032064BAB
:1067100000209A6641F6713203F51C33DA630122D8
:1067200003F50053DA60704700900050704737B5AA
:10673000054601F10C04436901A90122204698474E
:10674000BDF804300122009369462046AB699847A2
:1067500003B030BD174B10B50446D3F8200100F04C
:10676000070006281FD8DFE800F0040A0E211216E1
:106770001A00012304B1206001B10B6010BD0E4B63
:1067800018680523F6E70C4B58680323F2E736F048
:1067900061FC0723EEE7084B18680623EAE7064B7F
:1067A00058680423E6E700231846E3E7022303487A
:1067B000E0E700BF00800050C8470020002D3101F5
:1067C000024A536B0342FCD1704700BF008009505E
:1067D00070474FF480322DE9F843214B4FF0010808
:1067E0009A6641F671331F4D0446EF69EB631E4B09
:1067F0000021C3F80C800223686121202B6117401F
:1068000038F05EFCDFF86890064640B1C9F80C80AD
:1068100007B1E96301360CD16E20BDE8F883212071
:1068200038F04EFCC9F80C8007B1EE63431CF3D07E
:1068300008B17120F1E70D4B9A6801230A3202F08A
:106840001F02934023F0030323449C4201D1002004
:10685000E3E754F8042B0132F7D03E20DDE700BF18
:106860000090005000000350001003500080E00F23
:106870000020035000280CDB01220649430900F0E8
:106880001F008240203341F82320BFF34F8FBFF316
:106890006F8F704700E100E0D0F8A4301B689A6C5D
:1068A0005206FCD5002059647047D0F8A4301B680C
:1068B0009A6C120643BFDB6B00200B701B207047E5
:1068C000D0F8A43001221B6819B103F580531A6572
:1068D000704703F500531A65DA6470474FF0604261
:1068E000D2F8803E1B02FBD4704780F899107047A5
:1068F00090F89900704790F89600704703465978D1
:106900009B7800780BB92DF04DBB38F08FBA034659
:1069100059789B7800780BB938F088BA2DF042BBD3
:106920001FB54FF000639B6A03F17842B2F5C04F88
:106930001CD21C6B04F17843B3F5C04F16D2002370
:1069400001A8CDE902332BF093FF039BDB030DD5A8
:10695000029B1A0E0AD0012A03D1C3F307430A2B64
:1069600004D9236C04B0BDE81040184740F2011070
:1069700004B010BD13B50468A388ADF804302378C3
:10698000022B15D00DF1030101A82DF063FBA279B4
:106990009DF80330012A13D1618843EA41034FF681
:1069A000E07163F03F039BB28B4203D1227063809E
:1069B00002B010BD4FF6DF729342F8D10022F5E726
:1069C000002AF5D183F001032370F1E737B50D6894
:1069D0000C46AB88ADF804302B78022B26D00DF195
:1069E000030101A82DF036FB9DF8033083F001036D
:1069F0002B700F4B9C420DD12046FFF76EFCA8B9BF
:106A00000C4B83F8700203F51D7003B0BDE83040F5
:106A10002AF060BC63694BB12046984730B9012326
:106A2000044880F8703200F51D70EEE703B030BD09
:106A3000DC4D04080810002010B5044644EA0103A8
:106A400013F00303084609D1934201D1002010BD81
:106A500054F8231040F823100133F5E72146920043
:106A600036F0E6FAF2E738B5202204460D460C303F
:106A7000002135F095FC4FF0FF33C4E90035A360E9
:106A800038BD10B54C1C0B460119045D222C03D0F7
:106A90007B2C01D05C2C05D1D21A184435F088FC2F
:106AA000012010BD0020FCE72DE9F0470F461546F8
:106AB0000024DFF8709002F1040899F8946202F162
:106AC000090A5FFA88F8A24505D8013689F8946268
:106AD0000020BDE8F087052C11D8DFE804F01D0880
:106AE000030A0C0ED1202BF0DBFE0134EBE740460D
:106AF000F9E70220F7E70020F5E73046F3E7AB1DA2
:106B00009C420BD0EB1D9C4208D005F108039C422F
:106B100006D0BB1F185DE6E75B20E4E75A20E2E7FA
:106B20005D20E0E7081000202DE9F743D0E90434A8
:106B300004F17C07D0F80C900646013B102200219E
:106B40003846D4F874809DB235F02AFC0B4BC5F35F
:106B50000A0543EA0513C4E91F39012394F87800B4
:106B600084F88C30C4F884803A46054B009604F1D2
:106B700064012DF0C3FA03B0BDE8F08300001030CB
:106B8000856B0008536910B514460022D3F89000B5
:106B900083F88C2028B10168C3F890100260FFF7D9
:106BA000C3FF63681BB100212046A26898470020FC
:106BB00010BD034693F89420084610B5FAB10A694F
:106BC000B2F5006F1DD8EFF31184302282F31188E3
:106BD00093F88C204B617AB103F19002D3F8903096
:106BE0003BB90360106084F31188BFF36F8F0020FE
:106BF00010BD1A461B68F3E7FFF796FFF3E70E2078
:106C0000F6E72120F4E708B528B14178007838F09C
:106C10000DF9002008BD2220FCE708B528B1417815
:106C200000782DF0BFF9002008BD2220FCE70368A2
:106C3000D90444BF43F48063036003689A0444BFEB
:106C400043F40063036070470BF011B9002808DBC0
:106C500001224309034900F01F008240603341F8DC
:106C60002320704700E100E0034630B100201A5CA9
:106C700002B9704701308142F9D1704770B50D4EAD
:106C8000451E013915F8014F2346325D02F003021B
:106C9000012A11F8012F08BF04F12003B05C00F0B5
:106CA0000300012808BF2032981A01D1002CE9D135
:106CB00070BD00BF5D0205084FF0FF307047FEE772
:106CC000002070470020704700207047F8B5044648
:106CD0000D46EFF31186302383F3118890F8963038
:106CE000A1B173B990F898305BB1EFF3108572B62B
:106CF000012037F0F7FF0123284638F0BAF884F86E
:106D0000963086F31188BFF36F8FF8BD002BF8D053
:106D1000EFF3108772B6084637F0E4FF384638F0D4
:106D2000A8F884F89650ECE70B4B93F8952262B1E3
:106D300007280CD803EB001393F8FC304BB1012368
:106D4000064A834013640020704705487047054891
:106D500070470548704700BF08100020001004501D
:106D6000028000F0018000F0078000F00B4B93F8E8
:106D7000952262B107280CD803EB001393F8FC307E
:106D80004BB10123064A8340136400207047054835
:106D90007047054870470548704700BF081000203D
:106DA00000200450028000F0018000F0078000F015
:106DB000014638B508B9012038BD047D2046FFF7EB
:106DC000B3FF3023634303F1A04303F58023204640
:106DD000DD6EFFF7CBFF0A4B9D421CBF042381F8F9
:106DE000A13091F8953091F8A1002BB1022803D180
:106DF000012381F8A130DFE70428DCD1F8E700BFE8
:106E00009E12002010B5EFF31184302383F3118814
:106E100000220E490B7B73B90D49026001EB02128F
:106E20000121C2F8F03082F8FC1084F31188BFF31E
:106E30006F8F184610BD0132082A01F11001E9D107
:106E400084F31188BFF36F8F0248F3E7F810002036
:106E500008100020048000F073B5054690F84260E9
:106E60001C4630460DF103032DF0A6F8EB6B012E06
:106E70005B690DD1324601A998479DF8033013B1E3
:106E8000BDF806300193BDF80430236002B070BD38
:106E90000122214602B0BDE870401847034608466B
:106EA000EFF3108172B6034ADB6BC2F89812DB680D
:106EB000184700BF081000202DE9F0410646406841
:106EC00082B0C0B10F4690460024336853F8345066
:106ED00003EBC403C5F30752C5F31301013504F1F5
:106EE000010406D05B683046CDF80080B84710B189
:106EF00070688442E9D302B0BDE8F081036813F002
:106F00007E0F03D1406820F07C40704713F078007A
:106F10001CBF03F07F03D81F7047202A0B681EBFD9
:106F20004FF0FF3191408B43590801F055315B1A06
:106F300003F033319B0803F033330B44017803EB48
:106F400013130A444FF0013103F00F334B43A2EB0C
:106F50001362027070472DE9F0410546002448682D
:106F6000EB6B86B00E4601225B69029402A90830E1
:106F70009847A04695F84230012B40F08180632C61
:106F800003D9029806B0BDE8F081612C08D805ABA2
:106F9000224631462846FFF75FFF9DF8143013B3B1
:106FA00005AB2246314628468DF81080FFF754FF86
:106FB00095F84230059F012B52D14FF6FF739F4247
:106FC00000F09180082205A904A8FFF7A6FF9DF80C
:106FD0001020C7F307239A4240F08580FFB2029B3E
:106FE0003B4402937FE095F84230012B2ED122469C
:106FF0003146284603ABFFF72FFF3146284604AB46
:10700000621CFFF729FF3146284605ABA21CFFF79B
:1070100023FF102208230DEB02010DF107008DF86C
:107020000730FFF77AFF102205A9FFF776FF039BD1
:10703000DAB2002A50D19DF80720B2EB132F4BD1C2
:10704000DDE9043203EB0243029345E0302C29D9F9
:1070500042E09DF80720B2EB134F3DD1049BF3E7CC
:107060007B1C40D0102205A90DEB0200FFF755FF55
:107070009DF81020C7F307439A4234D1BFB2AEE760
:10708000312C3FF67EAF8BD005AB224631462846E9
:10709000FFF7E2FEBDF81430002B81D195F84230A5
:1070A000012BA4D022463146284603ABFFF7D4FE7D
:1070B0003146284604AB621CFFF7CEFE1023202287
:1070C0000DEB03010DF107008DF80730FFF725FFE9
:1070D000039B9AB2002ABCD095F84230012B14BF12
:1070E000012302231C44013444E737B5044600253C
:1070F0001B22011D0DF107008DF80750FFF70DFF52
:1071000063689DF80720B2EBD36F03D123F078407A
:1071100003B030BD1B2204F108018DF80750FFF7C2
:10712000FCFEA0689DF80730B3EBD06F0ABFC043E8
:107130004FF0FF3020F07840EAE74BF29A220368E4
:1071400010B5B2EB134F044613D19BB2012B15D1EE
:10715000FFF7CBFF013011D04FF6FF72E068B2EBC2
:10716000104F4FEA10430BD180B2C01A18BF012054
:1071700010BD013314BF04200320F9E70420F7E712
:107180000220F5E7F0B50546002687B0EC69013C22
:10719000B44203D80C46204607B0F0BD01B14C1EE6
:1071A0006F6C2868EB6B05225B6901A907FB040083
:1071B000984701A8FFF7C1FF0128ECD92146013605
:1071C000E4E70368F0B5CC1A436C0646B4FBF3F46D
:1071D000002587B0F36937685A1E9542706C06D354
:1071E000736C306803FB0400143007B0F0BD013449
:1071F000B4FBF3F203FB1244F36B05225B6901A9B4
:1072000000FB0470984701A8FFF797FF0128E7D912
:107210000135DFE710B423F0030422449B070A443E
:10722000436C18BF04325B4282EA0104234202D05D
:107230005DF8044BC5E710465DF8044B70472DE937
:10724000F04F144606460F468BB00393C36B0122E2
:107250005B6907A960689847F36B01225B69384650
:1072600006A99847079B5D1C07D10022A360A27561
:10727000627500200BB0BDE8F08F0122A2750022DC
:10728000217E069D04EBC101CF610A846068C5F3CD
:10729000D31CB84205F07F010CD14FF0FF33C4F886
:1072A00000C02175A360237D043B022B26D8002358
:1072B000A375DEE794F814E020688E4503D1A0EBB7
:1072C0000C004242424103F07F0001288CBF0020A5
:1072D000012001298CBF00210121884218BF002212
:1072E00015F07E0FA27503F07E0304D1002BDAD0D7
:1072F0000023A375D7E7002BD5D1F9E715F07E0F52
:107300000FD1F36B022238465B6908A9984708A899
:10731000FFF7F4FD237D032B50D8DFE803F0140EB4
:10732000045806A8F4E7CC22237E04EBC3031A8496
:107330000123694A13441B7E0AE0237E04EBC30346
:1073400018840023F5E7237E04EBC303188401238C
:10735000149A1370069A12F07E084FEAD26A227EBF
:1073600037D1F36B04EBC2020AF003055B69B2F894
:10737000209082F8225008A90222384698472022FD
:107380000DF117000DEB02018DF81780FFF7C5FD19
:107390001A2209A9FFF7C1FD9DF81730099A4FF08D
:1073A000080BB3EB926F0CBF012300236375637D61
:1073B00033BB0023A3754FF0000851E0227E013B50
:1073C000DBB204EBC202052B1084C0D8B1E7022364
:1073D000AFE7002504EBC202B2F8209082F82250F9
:1073E00006A91B2208A88DF82050FFF796FD9DF8EE
:1073F00020204FF0040BA2EB0A0253425341D5E781
:1074000094F81680B8F1000FD5D0B9F1000F09D16A
:10741000DDB10123E375637E002B35D1012D28D129
:10742000657614E0736C07EB0B02594287EA0200A1
:1074300008421CBF0021A175591E0A409B1A4B45EA
:10744000B7D3A37D002BE3D1B5E7E37D43B94FF07C
:1074500000084B465A4639463046FFF7DBFEA0602F
:10746000A27D237EBAB9012B33D801332376A07DC8
:1074700000E796F8343063B9F36A0133E9D1032D9C
:10748000E7D10123A376E2E7012DE9D0032DDED178
:10749000F7E79846DDE72269012B4A44226118D8B4
:1074A00001332376039B002BE1D0E37D002BDED05C
:1074B000B8F1000FDBD1032DD9D0A1684B1CD6D079
:1074C000149B2246009330460123FFF7B8FEA075B7
:1074D000CDE70023A375CAE7DC4D040813B50C46BD
:1074E000002121760093616813462246FFF7A7FE2C
:1074F00018B1E37D03B1A07EA075A07D02B010BDE0
:107500002DE9F743044616461F460D46DFF8748002
:10751000816AE36A8B421ED04B1C1CD0DFF860905E
:107520004846FFF7A0FA0122494620460DF107031D
:10753000FFF7D4FF30B13B4620469DF807201049A5
:10754000B04740B1D8F8A4124A1C07D0012D0DD085
:10755000E36A9942E4D103B0BDE8F083D8F8A01201
:107560002046FFF72EFE012D0146D2D1D8F8A032D9
:1075700081EA0302636C5B421A42ECD1C9E700BFA7
:10758000A4120020081000202DE9F0410F461646F5
:107590009846044688B060B390F83450FDB101219C
:1075A000FFF77CFC00210E9BCDE90511CDE90237E8
:1075B0009DF83C30CDF804808DF81C30237C049677
:1075C0008BB90D4901AA04F10800FFF775FCDDE94C
:1075D0000553E06B002E08BF1D462CF052FD2846D7
:1075E00008B0BDE8F0812046044A01ABFFF788FFF0
:1075F000EDE70546F3E700BF53650008BD780008D6
:107600002DE9F041D0E90A369E42044686B028D1E1
:107610001422C369456802FB1355284606B0BDE82D
:10762000F0812068676C331AB3FBF7F3E26B07FB5A
:107630000300D2F8148001A90522C04701A8FFF772
:107640007CFD012804D0636C1D44013B3340ED1ADE
:1076500031462046FFF7B5FD0646A36AB342E0D1A6
:10766000DBE70025F9E72DE9F04F0F469A460023A6
:1076700089B004464FF0FF31104690468DF80B302C
:10768000FFF7F1F9B7F5801F20D2394603AA04F1BC
:107690000800FEF7B2FF451C014605D1237CBBB9AB
:1076A0002D2009B0BDE8F08F4046FFF7DCF901223C
:1076B000414620460DF10B03FFF710FF0028EDD0E7
:1076C0009DF80B308AF800300020EAE7B81CE5D1BD
:1076D000E66A711C2CD12046616AFFF753FD06460D
:1076E000BB1C18BF0123DFF8C4B00093636A626C4F
:1076F0000193236803A902FB0639E36B4846052280
:107700005B6909F114099847002549464B1C05D0CF
:10771000636C81EA09025B4213420FD03146204676
:10772000FFF730FD019BB3422FD085BB0646DDE756
:107730002368F61A636CB6FBF3F6D1E71A48FFF735
:1077400092F92046009A18490DF10B03FFF7C6FE87
:107750008446B8B1BA1C03D0DBF8C832BB4211D1A1
:1077600045469DF80B30DFF840E08AF80030BEE86F
:107770000F000FC5BEE80F000FC59EE8070085E8A3
:1077800007006546DBF8D012C0E7002D88D0B7F5BA
:10779000801F99D239469AF80030D8F8042004F1B5
:1077A0000800FEF75BFF8FE7D012002008100020D2
:1077B0002DE9F04385B00C4617461E460546DDF818
:1077C0003080A0B390F834309BB3B1F5801F32D233
:1077D000DFF868900121FFF761FB214628460DF193
:1077E0000F0309F53D72FFF73EFF044688B99DF887
:1077F0000F30012B14D1D9F8042306EB08039A4269
:1078000013D3009043463246394628462AF0BAFE42
:107810000446E86B2CF035FC204605B0BDE8F0834B
:10782000022B14BF2D246024F3E76324F1E7212405
:10783000F2E71124F0E72924EEE700BF081000204A
:107840002DE9F3411F4600230C46164605463B60D2
:1078500058B390F8343053B3B1F5801F29D2DFF814
:1078600058800121FFF71AFB214628460DF1070336
:1078700008F53D72FFF7F7FE0446A0B99DF8073002
:10788000032B10D0022B0AD10123336004233B6069
:10789000E86B2CF0F6FB204602B0BDE8F0813060CA
:1078A000D8F80433F3E72D24F2E72124F3E7112479
:1078B000F1E72924EFE700BF0810002073B50D465B
:1078C000D11E4A421C461B7E4A419A4228D1296851
:1078D0002368994224D36368994221D8124E0DF14E
:1078E000070306F54872FFF7BEFEC8B9D6F8242391
:1078F0006B689A4214D19DF80730DA1E5342534107
:10790000227E93420CD1636901336361D4E903237E
:10791000934205D22968A26842F8231001332361FB
:10792000012002B070BD00BF0810002070B5002516
:10793000044686B00562E369AB4202D8206A06B00D
:1079400070BD666C2068E36B05225B6906FB050071
:1079500001A9984701A8FFF7F0FB012898BF236A07
:1079600005F101059CBF01332362E4E72DE9F041F5
:1079700000254FF0FF384FF6FF73044647462E466A
:10798000C0E9085386B0E369B3420DD8A5EB0805FA
:10799000012D06D94FF6FF7300256362E369AB4200
:1079A00023D806B0BDE8F081E26B2368606CD2F8A2
:1079B00014C000FB0630052201A9E04701A8FFF72B
:1079C000BCFB01280FD801A8FFF78FFB874288BFB7
:1079D0006662804528BF8046854238BF0546074617
:1079E000236A013323620136CDE7666C2068E36BBE
:1079F00006FB050005225B6901A998470135CDE723
:107A00002DE9F04F97B0CDE908230F460A69416C84
:107A1000D31D1439B3FBF1F3013302EBC302036B43
:107A200004469342C0F012820023DFF880920C9348
:107A3000E36A9C4819460693FFF715F8D7E9033621
:107A40000393099B022B61D1CC2E40F0E081089B6F
:107A5000002B2DD039462046FFF77DFA656C069A3B
:107A60006B1E13401290ED1AE36B01225B6978687C
:107A700014A99847149B13F07E0F14BF0423082306
:107A8000782E059351D9012200234FF0080A049261
:107A90003A68C9F8D862C9F8C822099A032A62D09C
:107AA000022A14D0049A002A14BF0022072212E0EE
:107AB000039B01221B684FF0080A12933B68049253
:107AC000C9F8C83208230593089BC9F8D862049AFC
:107AD000C2F10202D2B289F8DC224FEA9A020E9277
:107AE000069A019200220A920D9207920B92606C04
:107AF000019A411E1140421A002E36D053449A4238
:107B00003ED8236B1B1A0B44236359E1656C069A1C
:107B10006B1E1340782EA5EB030516D8FB7D7BB9B1
:107B2000089B002BA0D104230593331DAB4212D92F
:107B3000B6B1082DA7D8042300229A460492A7E7DD
:107B4000089B002B90D10823EEE7089B002B8BD1DC
:107B50000823059397E7002304934FF0040A97E75F
:107B600004230496F9E7099AB5E75245C9D3B0460C
:107B7000019B53440293079B002B18BF032314E07F
:107B8000A2EB0A02019B9642B046534428BF90469E
:107B900096420293EFD90123D9F8D82289F8DF322F
:107BA000964243D1019AC9F8CC22079399F8DF3263
:107BB000002B3DD099F8E0220199D31C09EBC303B7
:107BC000C3F8CC1207990132A3F8D08283F8D212FD
:107BD00089F8E022B8F1000F14D0099B022B2BD1B9
:107BE0000A9B7BB90D9B4344032B0BD9E36B01220A
:107BF0009B69029812A998470546002840F0288101
:107C000001230A9399F8DC323D68274A012B02EAE6
:107C1000C51528F07C4B40F290809A1E012A03D9AA
:107C200008F1070303F07F031D438CE00223BCE748
:107C3000019BC9F8CC32CDE7089B002B38D1039BC0
:107C4000B8F1030F03EB080B28D9DDE90201E36B60
:107C50004FEA98029B6998470546002840F0D1807A
:107C600018F0030266D0039B28F003052B4403930E
:107C7000029B1D444FF0FF33039913A8139335F073
:107C8000D7F9E36B284601229B6913A9984705465B
:107C9000CDF80CB0002DB5D0029B76E04246029D97
:107CA000E8E700BFD012002080FFFF070810002087
:107CB00007F12003DDF808B00F93FB7D78689BB1D6
:107CC00000233D7E0B9AD9B28D4211D90F9903F151
:107CD000010C31F83310914226D9059907EBC30303
:107CE000D8690A44104403E00B9B059A13441844D6
:107CF000E36B01225B6913A99847139B012211933F
:107D00000B9B584604330B93E36B11A99B6998476F
:107D1000029B05464344A3EB0B03042B07D9002821
:107D200072D10BF1040BC8E76346521ACBE7CDF8CA
:107D300008B0AFE7CDF80CB064E7079A43EAC26336
:107D40002B4343F060454FF000038DF84C30049B0B
:107D5000CDE9145B002B49D0202214A913A8FFF70A
:107D6000DCF81A2215A9FFF7D8F89DF84C304BEA39
:107D700083631593E36B0E9A9B69019814A9984746
:107D8000019A051E0C9B18BF134652460C932046C1
:107D900043460199FFF73EFA236B08F10302A3EB78
:107DA0000A0322F003029B1AC9F8D0022363002DB4
:107DB0004ED10D9BA6EB080643440D93029B019305
:107DC00020460199FFF7FDF900230190002E7FF472
:107DD0008EAE534A3968D2F8D03204F10800E3621B
:107DE000D2F8CC22099BFEF739FC11E01B2214A922
:107DF00013A8FFF792F89DF84C3045EAC365149537
:107E0000B8E7CDF80CB047E7CDF808B044E77026E6
:107E1000304617B0BDE8F08F00265AE004F10800A4
:107E2000FEF7B2FB3346314620463E4AFFF768FB79
:107E30003A69616CD31D1439B3FBF1F3013302EBE2
:107E4000C302236B9342BFF4F3AD67E01C26DFE768
:107E50003D2D63D104F1080301932668069B20465B
:107E6000E16AD4F844A0A3EB060BFFF7AAF9A26AD3
:107E7000BBFBFAFB8242DBD0616CD9F8D02201F166
:107E8000FF3C02EA0C0C226B0C9B521A62442263E8
:107E90002268E0629A1AB2FBF1F8C345BCD10AFB32
:107EA0000866069B06F1140BB3EB0B0611D0E36BCF
:107EB000B20859469B6998478246E26A069B32445B
:107EC000E262226B0198D21A5A442263FEF75CFBED
:107ED00056462368616CE06B01FB0831FEF727FC16
:107EE0002046FFF723FD2046FFF740FD626A616CE4
:107EF0002368204601FB02331433A362FFF780FBA3
:107F00002063002E8AD03A69616CD31D1439B3FB0B
:107F1000F1F3013302EBC30290429ED22E4677E783
:107F200008100020F96600082DE9FF471E46436946
:107F30000446B342884617469DF83090C0F08380CF
:107F400000258DF80F5020466169FEF7BCFAD4F881
:107F500030A082450AD2236AB5EB430F06D22046F1
:107F60000DF10F012AF0C2FB00286AD09DF80F30F6
:107F7000012B04D120460DF10F012AF0B7FBB9F116
:107F8000030F06D031462046FEF79DFA256B854249
:107F90005BD32F4D4FF0FF3105F54870FEF763FDC1
:107FA0004B460022204605F54871C5E9CB76C5F859
:107FB0002083FFF725FD236E0746002B3DD020468A
:107FC0006169FEF780FA626E236B024493422CBF14
:107FD00000220122984228BF0023257C38BF1B1AAB
:107FE000002684F85020636584F85850D5B1DFF836
:107FF000648033463246314620460196CDF80080F3
:10800000FFF7C2FA01230546CDE900833246334625
:1080100031462046FFF7B8FAE36805449D4294BF15
:108020003546ED1A94F85030E56513B994F8583098
:108030001BB1236E04F150009847384604B0BDE8E8
:10804000F08701357FE76227F7E71C27F5E700BFD8
:1080500008100020FFFF0F002DE9FF410F4690465A
:108060001E460546A8B390F83430A3B3B1F5801F7F
:1080700033D21B4C0221FEF711FF04F53D72394645
:1080800028460DF10F03FFF7EEFA024678B10123FF
:1080900042460093394633462846FFF745FF0446DB
:1080A000E86B2BF0EEFF204604B0BDE8F0819DF8B0
:1080B0000F30012BEBD1D4F804138E42E7D100939B
:1080C0004146334628462AF05DFA04460028DED1B0
:1080D000E6E72124E7E71124E5E72924E3E700BFE9
:1080E0000810002070B586B00E4605460392A0B376
:1080F00090F834309BB3B1F5801F32D20221FEF7E5
:10810000CDFE31462846184A0DF11703FFF7ABFAAA
:10811000044618B99DF81730032B0ED102233146BF
:1081200000932846CC2303AAFFF7FEFE0446E86B23
:108130002BF0A7FF204606B070BD022B0BD10A49D9
:108140002846FEF708FF039902468142EFD02846F1
:1081500028F0DAFFEAE76124E9E72124EAE71124BD
:10816000E8E72924E6E700BFFC12002030B50C4602
:10817000054685B028B390F8343023B3B1F5801F9D
:1081800023D20221FEF78AFE0DF10F032146284675
:108190000F4AFFF768FA034688B99DF80F20032AB3
:1081A0000DD003222146009202462846FFF7BCFE6E
:1081B0000446E86B2BF065FF204605B030BD2D244A
:1081C000F7E72124F8E71124F6E72924F4E700BFB4
:1081D000FC1200202DE9F341089C032A174626686B
:1081E00006D1237A012B25D0012002B0BDE8F08111
:1081F000DFF8988030460DF1070308F54872FFF765
:1082000032FA60600028ECD12568D8F82433A96AD6
:10821000D5F844C04B40CCF100021340207AE0D1A5
:10822000012809D1E068D8F83023024470698242FD
:1082300002D92374207CD8E72868EB6A1B1A081A35
:10824000B3FBFCF3B0FBFCF083420BD1706CF36A20
:10825000421E1340326B121A134428463363FEF752
:10826000B0FFE862D8F83023E36808321344E360D3
:1082700001223B4604492068FFF7C2FB60600028EA
:10828000AFD00020B1E700BF281300200810002065
:10829000032A2DE9F34106460D4617461C4606D132
:1082A000237A012B24D0012002B0BDE8F081DFF851
:1082B000608009680DF1070308F54872FFF7D3F9EC
:1082C00060600028ECD19DF80720237A032AE7D0CC
:1082D000D8F824136A689142E2D1012B2969D4F8B5
:1082E0000CC007D172690CEB0103934202D92074D0
:1082F000207CD9E708316144E1603B4601222946F0
:108300003046FFF77DFB60600028C9D00020CBE736
:1083100008100020F0B504460D46466CE36B00687B
:1083200087B005225B6901A906FB0500984701A8F3
:10833000FEF703FF012804D801A8FEF7D6FE07B018
:10834000F0BD29462046FEF71DFF0646676C2068F3
:10835000E36B05225B6901A907FB0600984701A8AA
:10836000FEF7C3FE431CEAD0B54238BF0130E6E752
:108370002DE9F0430646994689B0036908460F4641
:10838000904698470446002867D1D9F804305B0A24
:10839000012B22464FEA530304F10104F8D899F85F
:1083A000035099F802302D03DB0203F4006305F457
:1083B00080551D43B9F800304FF00009C3F30A039C
:1083C00052032B4492B29D18294B0DF107001B223A
:1083D00028F0784402A9039302948DF80790FEF7E1
:1083E0009CFD9DF807306FEA054544EAC364049498
:1083F0006FEA08041B2224F0784402A902948DF845
:108400000790FEF78AFD9DF807306FEA154544EAAC
:10841000C3644FF0FF3301220594069307A9B369A3
:10842000079507F11000984701220446B36905A992
:1084300007F1080098470122484518BF0446B36970
:1084400004A9381D98470122484518BF0446B3695E
:10845000384603A9984728B1044639463046FEF706
:1084600066F901E0002CF8D1204609B0BDE8F083A0
:1084700001009AB238B50446456C006804F1400327
:1084800005FB0101E06BFFF773FF05462046FFF790
:108490004DFA284638BD2DE9F04F4FF0FF334FF627
:1084A000FF720025044600F10808C0E909238BB0DB
:1084B000C3620562056340468B46FEF765F82046B9
:1084C000FFF734FA40BB4FF6FF79676A00264F4545
:1084D00014BF3D460025E3699E423BD32046FFF78B
:1084E00025FA08BB5E2028E02368E26B606C5669C1
:1084F00000FB0530052205A9B04705A8FEF71DFEC3
:1085000001281DD129462046FFF704FF421C2946B9
:108510002046FFF7AFFF0135E3699D42E4D32046D3
:10852000FFF704FA0028CED02046FFF71FFA4FF6D7
:10853000FF72636A934237D167200BB0BDE8F08FBA
:108540000338C0B20128E6D829462046FFF7E2FEEC
:108550000246DCE7E26B2368606CD2F814C000FBD3
:108560000530052205A9E04705A8FEF7E6FD02282B
:1085700007D04F450DD10BF1010229462046FFF7E8
:1085800079FFE3690135B5FBF3F2013603FB1255C0
:10859000A1E729462046FFF7BDFEB0F1FF3F14BF1B
:1085A00002465A460132E8E7E26B666C206855697C
:1085B0006946052206FB0300A847626A616C2368CE
:1085C0004A4D01FB02331433A3624FF0FF336FF0C7
:1085D0000101E362204605AB05F54872FFF743F859
:1085E000002849D1D5F8285329462046E562FDF7F1
:1085F00097FF206320B92046E16AFEF7E2FDE062C2
:1086000029462046FEF7DDFD0546A36A9D4235D189
:108610002046FDF741FF002607463546E3699D42A7
:108620003ED3B74257D92046616AFEF7ABFD4FF003
:108630000008054604F1400A464512D8626C2368DA
:10864000694602FB0539E36B05225B69484698479A
:108650006846FEF74AFD534602464946E06BFFF77F
:1086600087FE29462046FEF78DFD08F101084745A3
:108670000546E1D1642060E7A56AB5E729462046B2
:10868000FDF74EFF236B294603440646236320462D
:10869000FEF797FD0546002EB7D1C4E90B06B4E7F7
:1086A000626C236805A902FB0539E36B05225B694F
:1086B0004846984705A8FEF740FD012809D82046FE
:1086C00009F11401FDF72CFF636C143B984208BFBD
:1086D00001360135A2E74046FDF756FF002320464C
:1086E0001946034AFEF70CFF002026E70810002079
:1086F000F96600082DE9F8430025DFF884810E466D
:10870000D8F84C930446C8F84C5318B9212528468C
:10871000BDE8F88390F8347007B30A6803689A429A
:1087200040F0A3804A6843689A4240F09E808A687D
:1087300083689A4240F09980CA68C3689A4240F0C0
:1087400094800A6943699A4240F08F808A69C36BBA
:108750009A4240F08A804B698361D8E768223946A3
:10876000856B33F01DFE336804F1080023607368E5
:10877000A5636360336963617369A361D6E902230A
:10878000C4E90223FDF700FFB36904F14000E3638D
:108790009B68984720B9676C17B16368B3FBF7F71C
:1087A00094F84330E761002BB0D00023656C23665A
:1087B000002D62D0002F60D02368B3FBF5F205FBDB
:1087C0001233002B53D16768B7FBF5F605FB16761D
:1087D000002E4CD12046FDF791FE874249D340F64A
:1087E00034726369CC3B934245D8B5F5805F44D37E
:1087F00003212046FEF752FBD4E90001E36B1B681E
:1088000098470546E36B0220DB6898472DB184F852
:108810003460E06B2BF035FC79E749462046FFF7E2
:108820003AFE6428054604D149462046FFF733FE48
:108830000546636C143BA5B9226A204602FB03F689
:10884000FDF75CFE864223BF012384F83430D8F85C
:10885000503384F834502ABF01335A25C8F85033B6
:10886000D7E7002384F83430D3E75D254FE7592557
:108870004DE75A254BE75F2549E75B2547E700BFF2
:10888000081000200149024834E700BFD04700200B
:108890006013002030B40446EFF3108072B62568F0
:1088A00085EA02030B406B40236030BC36F0E1BA2E
:1088B0002DE9F843204B0646D3F810334B1E0E2B00
:1088C0000D461746047890F8018028D961B34FF01F
:1088D00000094146204627B336F0A8FA0F21B8F127
:1088E000070F04EB440488BFA8F108084FEA0414FA
:1088F000124895BF4FEA88084FEA880804340C34C0
:1089000009FA08F201FA08F12044FFF7C3FF8DB914
:108910003078717857B1BDE8F84336F087BA8946A8
:10892000D7E72BF03FFBD9E78946D7E7BDE8F84307
:108930002BF038BBBDE8F88300C0035030C00350B3
:1089400010B560B1EFF31184302383F31188FFF782
:10895000AFFF84F31188BFF36F8F002010BD22207A
:10896000FCE77FB504680546A3885048ADF8083099
:1089700036F087FB0022012102A8FFF7E1FF0DF18D
:10898000070102A82BF066FB9DF8073083F0010376
:108990002370A379022B40F086804FF0FF330393BE
:1089A000EFF31186302383F311889DF80840FF2CE4
:1089B0006FD03F4BD3F81033002C43D19DF80930D2
:1089C000052B66D10122032102A8FFF771FF0123C5
:1089D000374A04F11000D2F83014834021EA030131
:1089E000C2F83014D2F830140F34C2F83014D2F870
:1089F0002C141943C2F82C142E49CA6E02F030020E
:108A0000202A1FBFCA6E22F0300242F01002CA664E
:108A1000294AC2F82034294B294A43F8342003EB71
:108A2000C4035D609DF80830FF2B04D00123254A64
:108A30008340C2F8243486F31188BFF36F8F01227C
:108A40002B462CE0012C07D19DF80930012B18D0C2
:108A5000032B1ED10424B5E7022C08D19DF8093060
:108A60008BB1052B11D0072B13D10824AAE7032CB7
:108A70000FD19DF80930022B09D0052B09D10A240A
:108A8000A0E703249EE706249CE707249AE709242D
:108A900098E786F31188BFF36F8F04222B4603A952
:108AA00002A82BF06BFF002004B070BDFC4D040841
:108AB00000C003500040005000E0035008100020A8
:108AC000CD69000800D0035003681A78022A02D149
:108AD00000225A8045E7704713B504460A4836F02D
:108AE000D0FAA2780421B2FA82F2237852098DF8E2
:108AF000043063780DEB01008DF80530FFF720FF9F
:108B0000002002B010BD00BFFC4D040838B504467B
:108B10004B4A936DD903FCD4916D11F08041FBD188
:108B2000D4E900031B0543EA0063E07B0343207B99
:108B300043EA0043607B43EA0033A07B43EA8013AF
:108B400013619069D4E904531B0643EA856300F07E
:108B500000400343A07EE57E0343207E43EA0043BA
:108B6000607E43EA00239361136AE06923F00F03F8
:108B700043EA8503334D00283DD1136294F8243035
:108B8000916A94F82000DB00294043EA40130B432C
:108B900094F8211043EA011343F4803393622A4985
:108BA000274A936D31EA0303FBD14FF080712748C8
:108BB00081621369A56823F4700343EA05531361C6
:108BC0004FF00043836194F822300BB9204B996237
:108BD00094F823303BB94FF480321D4B9A62184A07
:108BE000936D5B00FCD494F825301BB1144B194AEB
:108BF000C3F8802038BD034343F008030228136202
:108C000008D11161144891614FF408524FF47F412B
:108C1000FFF740FE0A4994F822308A6A94F820004F
:108C20001B062A4043EA4013134394F8242043EAE6
:108C3000C20394F8232043EA02438B62D3E700BFC8
:108C40000040005AC7FFFEFE030001000050005A1A
:108C50000060005AF1A7FFFF3440005A044BD3F8DC
:108C60008420D206FBD4D3F88400C0F3811070476F
:108C7000004000504209531E022B96BF074B0023B1
:108C800003EB820300F01F0029B103F5805301229A
:108C900082401A60704703F50053F8E76080005087
:108CA00038B5174CFF28A26A28D8A36D154D13F4C8
:108CB000803F18BF4FF48031134B18BF99624FF0BB
:108CC00080719962A36995F9245023F47F030544C8
:108CD00023F47F4343EA002385F3080543EA054371
:108CE000A3610A48FFF7D6FDA36DDB0304D54FF45B
:108CF00080310648FFF7CEFD002038BD2120FCE77B
:108D00000040005AC84700200050005A2840005A2E
:108D100038B50F4C0F48A26AA36D13F4803F18BFFB
:108D20004FF480310C4B18BF99624FF080719962FB
:108D3000A569FFF7AFFDA36DC5F30725DB0304D5D8
:108D40004FF480310348FFF7A5FD284638BD00BF2A
:108D50000040005A2840005A0050005A014B83F846
:108D600024007047C8470020014B93F92400704746
:108D7000C84700204FF4803310481149826A8B6243
:108D8000836D03F00303032BFAD14FF080730D487A
:108D90008B620A4B996D30EA0101FBD10120084931
:108DA0000865996D8907FCD4044B996D8807FCD53B
:108DB000996D8907FCD5044904486BE50040005AC9
:108DC0000050005A03000100000001012840005A31
:108DD000164B10B5D3F82831044603F00703013BC6
:108DE000052B04D8DFE803F00A161E120E1A002322
:108DF000184604B1206001B10B6010BD0C4B18681F
:108E00000523F6E70A4B18680623F2E734F022F947
:108E10000723EEE7064B58680323EAE7044B58683C
:108E20000423E6E702230348E3E700BF0080005085
:108E3000C8470020002D31010E4BD3F8403103F01C
:108E40000303022B0DD0032B0FD0012B0BBF0A23E2
:108E500001234FF40042002200B1026001B10B6017
:108E6000704709234FF40042F6E70C234FF47A725F
:108E7000F2E700BF00800050002337B50193154B87
:108E80000546D3F860320C4603F00703013B032B81
:108E90001ED8DFE803F0020E1914002101A8FDF727
:108EA00059FC10230DB1019A2A6004B1236003B06C
:108EB00030BD002101A8FFF7BFFF1123F2E734F016
:108EC000C9F807230190EDE7034B01930223E9E77B
:108ED0000023E7E700800050002D3101002337B563
:108EE0000193154B0546D3F894320C4603F0070363
:108EF000013B032B1ED8DFE803F0020E19140021FA
:108F000001A8FDF727FC10230DB1019A2A6004B1D6
:108F1000236003B030BD002101A8FFF78DFF1123AE
:108F2000F2E734F097F807230190EDE7034B019344
:108F30000223E9E70023E7E700800050002D31011C
:108F40004FF48032104B10B59A66A3F580531B6F17
:108F5000C3F3033303FB00000C4BDC69144041F600
:108F60007132DA635A6822F4401259B908498842CA
:108F700094BF00200120000502435A600CB100227A
:108F8000DA6310BD0349F2E700900050000003507F
:108F9000005A6202002D3101124B10B5D3F808328D
:108FA000044603F00703042B17D8DFE803F0031986
:108FB000090D1100012204B1236001B10A6010BD46
:108FC00009224FF40043F6E70C224FF47A73F2E7DC
:108FD00034F0B8F80F22830AEDE700221346EAE7DF
:108FE0000A22EEE7008000501FB50023B0F5807F15
:108FF000019300F056816AD8002800F0F9802038EB
:10900000602876D8602874D8DFE810F0F2000001FC
:10901000F2000001210121012101210121010001B2
:1090200033017E005C01B0007E0000010001000100
:109030007300730073007300730073007300730098
:10904000000100010001D2007101000173007300F2
:109050007300730073007300730073007300730078
:10906000730073007D012101F200F200F2006C0137
:109070007E007E00DE00810195002E0173007300EA
:10908000730073007300E900F200730021012101F5
:109090002101210121012E012E0100017300000197
:1090A000000173007300730073007300730073009A
:1090B0007300730073007300730073007300730018
:1090C000730073007300730073007300EE00B0F55B
:1090D000E06F00F00C815BD8B0F5607F00F09D8000
:1090E0001DD8B0F5007F00F0868006D8B0F5C07FAF
:1090F0007ED0019805B05DF804FBB0F5207F00F04C
:109100008580B0F5407FF4D134F01CF8934B1B6F91
:10911000C3F380230133B0FBF3F0400866E0B0F501
:10912000B06F00F0A6801AD8B0F5806F00F08F8085
:10913000B0F5A06FDDD10021884B0391D3F8203228
:1091400003F00703042B08D8022B00F28980012BBF
:1091500000F08280022B00F09E80039BABE0B0F514
:10916000C06F00F0AF80B0F5D06FC2D17B4BD3F8A9
:10917000003203F00700032800F0AF805B0700F126
:10918000A680013801288CBF00200120C0032DE0FB
:10919000B0F5186F00F0B7800ED8B0F5086F00F08A
:1091A000C780B0F5106F00F09D80B0F5F06FA0D1D2
:1091B0006A4BD3F860319DE0B0F5286F00F0A780CE
:1091C00007D8B0F5206F94D1002101A8FFF754FE15
:1091D0008FE7B0F5406F47D0B0F5486F89D10021D7
:1091E00001A8FFF77BFE84E733F08EFF019080E754
:1091F00033F0A8FFFAE733F087FF584BD3F89030ED
:10920000C3F304630133B0FBF3F0EFE733F09AFFED
:10921000524B1B6FC3F38023F4E75049D1F88020F1
:1092200002F00302022A0AD0032A0BD0012A0CD131
:1092300033F06AFFD1F88030C3F30113E2E733F073
:1092400009FFF7E7464B1868F4E71846F2E70021F4
:1092500001A8FDF77FFA4CE703A8FFF7B9FD7CE70B
:109260004FF40043039378E7002101A8FFF7B0FD16
:109270003FE70021394B0391D3F8803103F003031A
:10928000022B0CD0032B06D0012B7FF466AF03A872
:10929000FDF760FA61E733F0DDFE03905DE7314BE7
:1092A000E0E702934FF0E0231B695A0705D533F03E
:1092B00049FF0290029B01931BE703A902A8FFF755
:1092C000BBFDF7E7002101A8FFF7B6FD11E7042871
:1092D00006D133F037FF800A88E74FF47A7085E7CC
:1092E000002083E7002101A8FFF756FE01E71B4B92
:1092F000D3F8403203F00303032B16D0003B18BF12
:109300000123DB03D7E7154BD3F85032F2E70021F6
:10931000124B0391D3F8703203F00303012B7FF457
:109320001CAF03A8FFF788FD17E74FF47A73C2E775
:109330000A4BD3F8003103F00303022B06D0032BB2
:1093400007D0012B07D1064B5B68B4E74FF400430D
:10935000B1E7054BAFE70023ADE700BF0080005049
:10936000C8470020002D310180D5430208B5802078
:10937000FFF73AFE034B98429EBF4FF48032024BF8
:109380001A6708BD005A620200A0005070B5704C08
:10939000022027F0F7FF256F6E4BC5F380250021D3
:1093A0006A1C6D4883F8C023FFF7CAFD4FF4803272
:1093B000236F43F480632367684B1A67236F23F09E
:1093C000070343F00303236733F0BCFE0646FFF7B1
:1093D00045FC0128D4BF012100213046FFF7B0FD34
:1093E000002028F003F8236F23F4806343EA8523E9
:1093F0002367FFF7BBFF236F584923F474432367A8
:10940000574BD3F8FC2012F0807240F08880D4F8DB
:10941000803023F0030343F00103C4F88030C1F827
:1094200080204B4B4FF48031D3F820214D4822F05F
:10943000070242F00202C3F82021D3F8282122F0CB
:10944000070242F00202C3F82821D3F8802122F05B
:10945000030242F00102C3F88021D3F8402122F038
:10946000030242F00202C3F84021D3F8602122F047
:10947000030242F00202C3F86021D3F8402222F036
:10948000030242F00202C3F84022D3F8002222F085
:10949000070242F00202C3F80022D3F8082222F0A9
:1094A000070242F00202C3F80822D3F8502222F049
:1094B000030242F00202C3F85022D3F8702222F0D5
:1094C000030242F00102C3F87022D3F8202222F0F6
:1094D000070242F00102C3F82022204A5C6E516666
:1094E000426A22F001024262E2035CBF1E4A5166F8
:1094F0004FF0E0210A6942F004020A61D3F86022C9
:1095000022F0070242F00102C3F86022D3F894224D
:1095100022F0070242F00102C3F8942270BDD3F892
:10952000FC2022F08072C3F8FC20D4F8802022F0C6
:10953000030242F00102C4F880200022C1F880201A
:10954000D3F8FC2042F08072C3F8FC2069E700BF2A
:10955000008000500810002000B4C40400900050A7
:1095600000ED00E00000085000A000507047704778
:109570004FF000420F4B70B55D6E03F580535A6695
:109580004AF6CD3304460C4980204E6C0B64FDF73F
:1095900017F90B6A23F4F85343EA04230B62F30729
:1095A00044BF064B0B64002DA2BF4FF00042044B9A
:1095B0005A6670BD00800050008009503254FFFF91
:1095C00000A00050436D0B42FCD1704708B54368C2
:1095D000DA0714D58368DB0702D50369D90707D5F5
:1095E0000A2350218363FFF7EDFF836C9A07FCD1B8
:1095F000012200F500535A6043689B07FCD408BD64
:1096000010B5FFF7E3FF042300F5805100F5005289
:109610000B6113610B6113610B6113610B611361CA
:10962000202341F2020103610023C3608360416192
:109630004FF4A0218361836541620549C3610362E0
:109640008362C36243630365D164036310BD00BFDB
:10965000FF3F0D0338B50C460121024600F580534B
:10966000596004F00F0540F6FF71FFF7ABFF78215A
:109670008563FFF7A7FF04F00103610748BF43F0CC
:109680000203916C01F003019942FAD138BD01B98E
:109690009CE7DFE770B505461446084681B93A4BAA
:1096A0009D4220D0394B9D421FD003F580439D42FF
:1096B0001DD003F580439D4208BF6620FFF794FC50
:1096C000AB6813F0010F6B6833D0B0FBF4F4D8072C
:1096D00004F1FF344FEA04640BD42B6923F07F4379
:1096E00023432B6170BD5620E8E75720E6E765204D
:1096F000E4E728212846FFF765FFAB6C990714D1F2
:10970000AB6CDA0713D4AB6C13F0020F14BF062650
:1097100000262846FFF75AFF2B69314623F07F4386
:1097200023432B61BDE87040B1E70526F1E7092628
:10973000EFE7AB6DDB07AB6848BF640003F0E00305
:10974000402B1AD004D8D3B1202BCBD1082304E06E
:10975000602B16D0802BC5D1012363434101B1FB9F
:10976000F3F20B4B203A284603EAC2020121FFF72D
:1097700029FF2A63BDE8704024E70623EDE71023A4
:10978000EBE70423E9E700BF0000015B00C00850DD
:10979000F8FF7F0010B56D4888B06D4C35F071FC56
:1097A0006C4835F06EFC636823B140F6FF712046CB
:1097B000FFF708FF6648FFF723FF2369002123F026
:1097C000870343F0810323612369634A23F0F8038D
:1097D00043F080032361E36823F0F04323F4702314
:1097E000E360A36823F0030343F00103A360A368CD
:1097F000A360A36843F48063A360636A23F47723C0
:1098000023F4EE6343F480236362636923F00F0360
:1098100043F002036361A161FFF73CFF05214C485F
:10982000FFF735FF826CD24312F44054FAD140F274
:109830000223012204216846ADF80030FFF780F8CA
:109840004FF481732246012101A8ADF80430FFF7DF
:1098500077F840F202330122042102A8ADF8083063
:10986000FFF76EF840F202430421012203A8ADF88D
:109870000C30FFF765F8394B394A4FF44870C3F89C
:10988000C824A2F50032C3F8C4244FF00212C3F872
:10989000CC241C22C3F8B42404F0A5FE0421022029
:1098A0002AF080FB142004F09EFE0421022035F0F3
:1098B000BDFA232004F097FE042102202AF072FB57
:1098C000234B9A6C5106FCD5B9225A649A6C120645
:1098D000FCD504210220DB6B35F0A8FA002240F20F
:1098E0000223114604A8ADF81030FFF729F8002232
:1098F0004FF48173114605A8ADF81430FFF720F836
:1099000040F202330122002106A8ADF81830FFF71B
:1099100017F840F202430122002107A8ADF81C30DD
:10992000FFF70EF80A48FFF76BFE00210B4B0948C2
:10993000C3F8B414C3F8C814C3F8C414C3F8CC14DF
:1099400008B0BDE8104035F04FBA00BFFC4D040828
:1099500000C00850004E0408E070720000C00350C0
:1099600002000300012910B502D9022914D010BD4C
:10997000144BD3F8C443B83C14F1B80FF7D0D4F863
:10998000A80035F07EFBD4F8A43005211868FFF755
:1099900061FED4F8B840EEE70A4BD3F8C443B83CB4
:1099A00014F1B80FE3D094F8973043B994F8953098
:1099B00003F0FF011BB9D4F8A80035F015FAD4F86C
:1099C000B840ECE7081000202DE9F04105460F46AD
:1099D0001E4690464AB101233022194C8B4002FBAF
:1099E000004436B304F5825423600F21072F05EBA2
:1099F000450388BFA7F108044FEA0313114895BF38
:109A0000BC00A40004330C3308FA04F2A14018444B
:109A1000FEF740FFB8F1000F09D101233021084AB9
:109A2000BB4001FB05223EB102F582521360BDE846
:109A3000F08104F50154D7E702F50152F6E700BFC3
:109A400000C0035030C003500123F0B5C4B2214D13
:109A5000A340D1F800C08F7ACC7A0E7B2B658500AD
:109A600005F1A04505F58825C5F804C030256843F3
:109A7000240591F80DC044EA074400F1A04000F528
:109A8000802044EA465422F00302C0F860C0C46556
:109A90000267EFF3118485F311880F4A087A536542
:109AA00000B11364487A00B1936308798A7942EA75
:109AB0000042084882614D79CA79074942EA054265
:109AC0008A61064A4363936484F31188BFF36F8FFE
:109AD000F0BD00BF002004500010045000000450EE
:109AE0000123C0B28340EFF31180302282F311884A
:109AF000054A516D21EA03015165936280F3118893
:109B0000BFF36F8F704700BF000004500123C0B245
:109B10008340EFF31181302282F31188074AD06A23
:109B2000184209D1526B93430CBF0120002081F3EE
:109B30001188BFF36F8F70470020F8E700000450D2
:109B400070B59400224605460E4635F0B5FA431C22
:109B50000AD058B922463146284633F059FA00282F
:109B600014BF3D20002070BD6E20FCE77120FAE795
:109B700041F671320121064BDA6303F50052D160E0
:109B80000022DA634FF48032A3F518339A667047E7
:109B900000000350ECE7114321F0F8014904044BA5
:109BA000490C41F44021063043F82010704700BFB3
:109BB00000800350021E30B54FF000000CBF10258E
:109BC000042547F60774084952B9831D51F823301C
:109BD000234023B101308542F6D14FF0FF3030BD34
:109BE00000F11603F2E700BF008003503AB122F003
:109BF000030202F1A04202F5603209B91060704719
:109C00000002FBE74FF48032084B5A6603F5EE235F
:109C10009B69C3F3461203F00F010A434280C3F36A
:109C20000342C3F303334270037070470090005047
:109C300013B5044601A8FFF7E5FFBDF80630012281
:109C400023804FF4807300206380054B9B680A33A8
:109C500003F01F0302FA03F3636002B010BD00BFFC
:109C60000080E00F054B9A689107FCD45A68920770
:109C7000F9D4DA69002AF6D1704700BF00C00A5053
:109C8000C3681944836853F8210030F8023B13601D
:109C90007047F8B50B780446302B0D46164604D1B4
:109CA0004B7803F0DF03582B10D0274F6A1E12F8B1
:109CB000011F91BB28460A222BF00AF9202C0346EB
:109CC0000D462FD1B1FA81F040091BE04A1C1E4914
:109CD00012F8013F93B9284632F0A0FB04F00303C9
:109CE000032BA0F1020012D10134A41084420AD146
:109CF000A87837288CBF0020012003E0CB5C13F04C
:109D00004400E5D1F8BDCCBF01200020FAE7B0EB5C
:109D1000A40FD4BF01200020F4E77B5C13F0040003
:109D2000C5D1EFE726B1084302D0013B61F1000540
:109D30000122A240013A1A40002D08BF9A420CBFEE
:109D400001200020DEE700BF5D0205080A78013827
:109D50002D2A0ABF0122002289189AE72DE9F04F27
:109D600080460F4615469A46044685B0DDF83CB05D
:109D7000DDF84490206808B3DBF80060DAF80010E2
:109D80008E421BDA0E9B53F8261059B3FCF776FF70
:109D900040BB61680136CBF80060087BFE281CD10F
:109DA000109B0868CDE901B30E9B2A460093012160
:109DB0005346CDF80C90FFF7D1FF04462B7843B9FA
:109DC00099F800302BB97FB10123444689F800305F
:109DD0002B70204605B0BDE8F08F0123109A137058
:109DE0002B70EBE70C34C5E73C46F2E710B50446B0
:109DF000AC3032F013FB04F1AB031A18002093428D
:109E000000D110BD13F8011F0029FAD00A2908BF9C
:109E10000130F4E70023F0B50B6013600646D0F87C
:109E2000AC0278B196F8AC0060B1012406F1AC0741
:109E3000D6F8AC02844210D306F1AC00B3F5007F33
:109E400010D30120F0BD0D6801350D601568013596
:109E50001560F85C01330A2802D0B3F5007FF2D315
:109E60000134E5E7C15C0A29EBD00029E9D011688B
:109E7000013301311160E1E70FB407B504A951F8CE
:109E8000040B019127F02EFA002003B05DF804EBDB
:109E900004B0704770B506460D4632F0BFFA04466E
:109EA0003046FFF7E9FF044EAC4200D370BD3046A8
:109EB000FFF7E2FF0134F7E79CA904082DE9F84F0A
:109EC000044602216048FFF7E5FF1E212068FFF7E6
:109ED000E1FF63685868FFF7CFFF5C48FFF7CCFFEE
:109EE00067683B7BFD2B12D8D7F808804FF0FF3412
:109EF000404632F093FA0646DFF84C91DFF8A8A10D
:109F0000DFF864B10C3717F8013BFF2B01D1BDE836
:109F1000F88F212B14D8212B14D8DFE803F0178CED
:109F20008884807C78741313131313131313706CC9
:109F30006864605C58541313131313131313504CB9
:109F4000FE2B34D006B10134414D02E006B101349C
:109F5000404D02214846FFF79DFF1E214846FFF76E
:109F600099FF5046FFF788FF5946284632F04CFAD1
:109F70003949002818BF29463848FFF77DFF3B784C
:109F8000202B02D12B202AF009F83548FFF774FF67
:109F90004EB118F804301F2B05D018F804001F2804
:109FA00001D0B4424BDB2948FFF766FFABE706B1AF
:109FB00001342C4DCDE706B101342B4DC9E7002EFD
:109FC000A1D001349FE706B10134284DC1E706B1A5
:109FD0000134274DBDE706B10134264DB9E706B17E
:109FE0000134254DB5E706B10134244DB1E706B182
:109FF0000134234DADE706B10134224DA9E706B186
:10A000000134214DA5E706B10134204DA1E706B189
:10A0100001341F4D9DE706B101341E4D99E706B18D
:10A0200001341D4D95E706B101341C4D91E706B191
:10A0300001341B4D8DE706B101341A4D89E729F033
:10A04000ADFF0134A9E700BF52B7040897B7040871
:10A05000D5F00308CFF003082CF10308429604085A
:10A0600059AC0408DDF00308E3F00308ECF0030842
:10A07000F3F00308FEF0030808F1030812F10308E7
:10A08000FDF0030807F1030811F103081AF10308B2
:10A090001EF1030826F10308C9F00308D0F00308F5
:10A0A00025F10308C8F0030864A5040810B50446A8
:10A0B000236803B910BD237A13B92046FFF7FEFECB
:10A0C0000C34F5E72DE9F04705469146884632F015
:10A0D000A5F92A4606461346197801322029FAD0F6
:10A0E000C9F800305C1B01236FF0404AC8F800300B
:10A0F000A64201D8002014E02F5D29197B2F12D031
:10A10000222F2ED1D8F80030621C53442A4449F83B
:10A110002320012C09D911F8013C13F0DF0F04D0E2
:10A120002120BDE8F0877D27F3E701342B5DBB429A
:10A1300009D12B195B7813F0DF03F1D1222F00D165
:10A140002B550134D4E75C2B07D1324621462846F3
:10A15000FCF797FC0028E3D0013E0134A642E5D885
:10A16000DEE75C2F08D1324621462846FCF789FC01
:10A170000028D5D0013EE4E7202FE2D10022631C65
:10A180009E420A70DDD9EA18EB5C202BD9D0D8F8B2
:10A1900000300F2B05DC49F823200133C8F80030CC
:10A1A000CFE71E20BDE72DE9F04F00218346ADF536
:10A1B000477D7C2207A8069132F0F2F8584632F02B
:10A1C0002DF946AA019026A95846FFF77BFF0446C1
:10A1D000B0BB469832F022F9A0460546A146274674
:10A1E000DBF89C6086BBB8F1010F40F0D18006A877
:10A1F00032F014F905EB040805F11803471B27EAB0
:10A20000E7750BEB08090DEB03042A462146484687
:10A2100032F00EFF09F80560DBF89050A845DBF836
:10A22000902000F3A580DBF894103A443944CBF831
:10A230009410CBF8902027443B1B002B00F3A38005
:10A240000DF5477DBDE8F08FD6F808A0BAF1000FF4
:10A2500061D05F4417F8012B202A14D000270C236B
:10A2600003FB07F20AEB020302935AF80230009351
:10A27000002B4AD0269B9945049346DC029B1A7A10
:10A280001AB17A1C2FE00134E4E746AADBF89450B7
:10A2900052F829302D1B2A4618460099039332F0B4
:10A2A000A1F805900028ECD1009832F0B7F8029B95
:10A2B00001465868059A90F80CC0BCF1FE0F16D103
:10A2C000049B03F1FF3CE14527D0D0F800A00398A0
:10A2D000009232F0A3F80134009A04441BF80410F1
:10A2E00019B109F101091746B9E70134F6E78D42C2
:10A2F000C7DC06A8029132F091F8029908447B2845
:10A3000019D9744906A827F016F85A46019B03EBA1
:10A310000B018A4223D1366864E78D42E9DD144699
:10A320004FF00C0A05680AFB04F2A95871B9A04461
:10A330000D46019CE9E7009906A826F0FCFF664956
:10A3400006A808F1010826F0F6FF9AE706A826F00D
:10A35000F2FF614906A826F0EEFF0134E3E712F8A8
:10A36000010B0028D5D14FF0200302F8013CD0E7C3
:10A370001BF8020029F012FEDBF8902001350132B3
:10A38000CBF890204AE714F8010B29F007FE53E7B9
:10A390007FF756AF26AF8022314638460DF58C7ACE
:10A3A00031F0FEFF4FF400723146504631F0F8FFB5
:10A3B00006AB1A464FF0010912F8018BB8F1000FF5
:10A3C0004AD118464AF82960009332F027F8BC4673
:10A3D0004246009B06A913F801EB0DF58C7858F85E
:10A3E000046B864242D1013291450CF801EBF2DA5E
:10A3F000DBF89060AE4240DB384A06A95B4638483D
:10A40000FFF73AFD384632F009F802462C442F4453
:10A41000551B25EAE5720BEB040014440BEB040614
:10A420000BF190018E424FD90BF1980188424BD22B
:10A43000791E4619321A002A39DD11F8012F00F869
:10A44000012BDBF890200132CBF89020DBF8942030
:10A450000132CBF89420EDE7B8F1200F06F10106A8
:10A4600004BF4AF8296009F10109A5E70E44B65C6A
:10A470007645B4D00021B954BAE7DBF89020013614
:10A480001BF8020029F08AFDDBF890200132CBF89E
:10A490009020AFE7DBF89010013A0131CBF8901033
:10A4A000DBF894100131CBF89410002AF2DC002282
:10A4B0003D440BF80420EB1B002B7FF7C1AE17F8CF
:10A4C000010B29F06BFDF6E7394632F0B1FD2A4663
:10A4D000EBE700BF2EF103089CA9040833F1030841
:10A4E00045F103082DE9F843D0E9245604460F4608
:10A4F000002294F89830012B07D10A2F07D10023AE
:10A5000084F898300020BDE8F88300F29F801B2F6C
:10A5100001D10223F4E70D2F0DD1012384F89830E7
:10A520000D2029F03BFD0A2029F038FD00230120F1
:10A53000C4E92433E7E74FF00008082F84F8988037
:10A5400034D1454530DDB5420FD1384629F026FDDE
:10A55000202029F023FD013D384629F01FFD013E52
:10A5600004F80580C4E92456CCE7FBDA05F1FF398D
:10A57000384629F013FD04EB0903A6EB0902611923
:10A58000184631F015FF04F806800146013E4848A0
:10A59000FFF772FC35464D4501DC4D46E2E70820E9
:10A5A00029F0FCFC013DF6E7ACD0DBE77F2F1CD1A6
:10A5B000002EA7DDB542A5DA6319691C21441846AF
:10A5C000721B31F0F5FE04F8068001463948FFF7AA
:10A5D00053FC0820013E29F0E1FCB542F9D1D4F842
:10A5E0009430013BC4F894308CE70A2F98D0092F9F
:10A5F00003D12046FFF7D7FD84E7D4F88C30013B28
:10A60000B3427FF77FAFB54204EB050805F10109BE
:10A610000CDB384688F80070D4F89430C4F8909079
:10A620000133C4F8943029F0B9FC6BE74146721B42
:10A6300004EB090031F0BCFE4046FFF71DFC08208A
:10A64000013E29F0ABFCB542F9DDE2E7022B06D171
:10A650005B2F01D1032353E784F8982049E7032BAC
:10A660007FF450AF413F84F89820032F3FF64AAF64
:10A67000DFE807F002070A160121204600F01CF867
:10A6800040E74FF0FF31F8E7B542BFF63BAF605D02
:10A6900029F084FCD4F890300133C4F8903031E7CD
:10A6A000002D7FF72FAF013D0820C4F89050BAE786
:10A6B0004EF103080386040873B50D460446FFF700
:10A6C00095FB6B1C25D1D4F8AC3213B1013BC4F817
:10A6D000AC320025204631F0A1FEA84221D800214D
:10A6E0002046D4F88C2031F05BFE0023C4E92433EB
:10A6F000D4F8AC325BB16A46204601A9FFF78AFB69
:10A7000028B1019D04F1AC06009BAB4214D802B005
:10A7100070BD012DFBD1D4F8AC328342F7D20133A6
:10A72000D5E7082029F03AFC202029F037FC082042
:10A7300029F034FC0135CDE7715D2046FFF7D2FEEC
:10A740000135E1E70028ACBF00F16040064B4FEA5D
:10A750000111C9B2ABBF00F5614000F00F0080F8F5
:10A7600000131954704700BF14ED00E0002807DB08
:10A7700001234109034A00F01F00834042F82130C1
:10A78000704700BF00E100E008B52B4B83F30A8857
:10A790004FF48041294A2A4B9360D2F8883043F421
:10A7A0007003C2F88830274B99664FF0FF31264B73
:10A7B00019666FF4003159660D2199660221C2F8BD
:10A7C000D010BFF34F8FBFF36F8F01214FF4403490
:10A7D000A2F54062C2F880110020DC60FFF7C6FFDE
:10A7E0001A4B1B481C611B4BC01A801026F0BCFD85
:10A7F000194B1A498B4212D30020194B19498B422D
:10A8000018D308F0FFFF186850F82240586840F845
:10A810002240013298688242F5D30C33EAE70022E5
:10A82000F8E71C6844F8220001325C68A242F8D3C1
:10A830000833E4E70022F8E70800002000ED00E01C
:10A84000006000080090005000A000440080004418
:10A85000C4620008B46100082C42050838420508AB
:10A860003842050838420508EFF31183302282F39D
:10A870001188044AD2F8C80383F31188BFF36F8F9D
:10A88000704700BF0810002013B5FFF7EDFF40B17F
:10A89000C46834B10122006801AB0DF10301A04787
:10A8A00018B14FF0FF3002B010BD9DF80300FAE779
:10A8B0002DE9F0410468054694F89410002963D10D
:10A8C000EFF31183302282F31188C4E9161183F368
:10A8D0001188BFF36F8FFFF7C7FF854202D108468B
:10A8E00029F04DFB236E2A4F93F910603046FCF798
:10A8F000ADF93046FBF7BEFF236E93F91160304689
:10A90000FCF7A4F93046FBF7B5FF97F89532207DA8
:10A9100043B1072806D807EB001393F8FC300BB1BE
:10A92000FFF7DEF8207D29F07BFBEFF31188302361
:10A9300083F311880023174A167BAEB90133082B25
:10A9400002F11002F8D12320FBF794FFFF22124BF3
:10A9500031465E6520209A625E60FEF78BF9212009
:10A96000FEF788F987F8956288F31188BFF36F8F37
:10A970000023C5E90033C5E90533EB60236E2046AB
:10A98000BDE8F041DB6818470F20BDE8F08100BF4B
:10A9900008100020F81000200000045007B58DF8C2
:10A9A000071030B9FFF760FF18B9232003B05DF836
:10A9B00004FB4368002BF8D001220DF10701006869
:10A9C0009847F3E70B4601461846E7E7302337B5CB
:10A9D000007D0DF10701434303F1A04303F58023FC
:10A9E000DD6E1C6F34F02CFA9DF8070040B9054B62
:10A9F0009D4203D184F00204C4F3400003B030BD93
:10AA00000120FBE79E12002010B50446FFF7DEFF91
:10AA100038B1236DD4E912020244934218BF18469C
:10AA200010BD3022237D534303F1A04303F580235F
:10AA3000DB6EEFE73021037D02464B4303F1A04379
:10AA400003F58023D86E07491B6F884208D113F0A5
:10AA5000020006D0106A136D1B1A58425841704705
:10AA6000002070479E1200202DE9F84F90F8943096
:10AA700004460D461646002B40F08E8090F89970E3
:10AA8000EFF31188302282F3118890F895206AB193
:10AA900090F8982052B180F89530EFF3108972B693
:10AAA000012034F01FF9484634F0E3F988F31188A7
:10AAB000BFF36F8F4FF030082E44AE4205D1236EA6
:10AAC000012120469B68984754E094F89A30002B67
:10AAD0003ED0207DFCF728F92046FFF7ABFF01466A
:10AAE000207DFCF743F999BBEFF3118988F31188B6
:10AAF000207DFCF719F92046FFF786FFD4F848A01F
:10AB0000411E514538BFE16C94F854B038BF01F193
:10AB1000FF31207D38BF5144FCF728F9BBF1000F0D
:10AB200012D10B46D4F89C0098420BD013F801299F
:10AB3000112A01D0132A20D1A2F111035A425A41FD
:10AB400084F8A020C4F89C1089F31188BFF36F8F9C
:10AB500094F8A030002BB0D0236EA9462A785B6809
:10AB600097B9236E20465B6899F800100135984725
:10AB70000028A2D00020BDE8F88F9A4582BFE36C80
:10AB800003F1FF335344CFE70A2AEAD10D212046CF
:10AB900098470028E5D0EDE70E20ECE72DE9F04FCF
:10ABA000044685B0007D04F13806FCF7BDF80021AD
:10ABB0001022304631F0F4FB4FF0300B4FF4447369
:10ABC000DFF80CA1207DDFF80C910AF2962763874D
:10ABD0000BFB0093C4E90F77DB6EBB4204D105B0D9
:10ABE000BDE8F04FFCF7C2B80DF10F0134F028F9C1
:10ABF0009DF80F70002F62D12046FFF705FF9AF8ED
:10AC000095228046237DEAB1072B1BD80AEB031A55
:10AC10009AF8FC20B2B1EFF311818BF31188D9F8C7
:10AC200034000BFB0399D9F8642081F31188BFF33A
:10AC30006F8F012101FA03F3034204BFC2F30A1329
:10AC40005F183D4604F11807102200213846D4F859
:10AC5000109031F0A5FB3022237D013D5343C5F315
:10AC60000A052D0145F04075C4E9065903F1A043DA
:10AC7000C4F8208003F580231A6F94F8241052083A
:10AC800062F3410184F82410196F94F8242027F00E
:10AC9000030761F3000284F824201B6F626A9B089B
:10ACA00063F39F0247F00207626267640094207DAD
:10ACB00032462146054B29F021FA207D8FE794F892
:10ACC00044306FF3410384F84430EFE703AF0008EA
:10ACD00008100020000004502DE9F04F9B4600238F
:10ACE000044687B005910392CBF80030DBF80050A2
:10ACF000039B5E1B00F0A080059B5D1900F09C800B
:10AD0000207DFCF711F82046FFF794FE8146207D58
:10AD1000FCF72CF8B9F1000F40F08E802046FFF7C9
:10AD200073FE216D94F89A8088429CBFD4E9120387
:10AD3000C018401A864228BF0646B8F1000F00F03E
:10AD4000AB80EFF311830493302383F311883746EC
:10AD5000D4F850A02046FFF739FE0AEB06029245D0
:10AD6000D4F89C1071D1D4E912231344994208BF3E
:10AD7000C4F89C20049B83F31188BFF36F8F804637
:10AD8000207DFBF7D1FF2046FFF720FE0546204639
:10AD9000FFF73AFED4F850A08146504540F28A8031
:10ADA000A36CB5B29A457DD123691022049304F1B6
:10ADB00028030021184631F0F3FA3021049A013DAE
:10ADC000C4E90B2A227DC5F30A054A432D0120F070
:10ADD000030302F1A04245F0407543F0020302F57F
:10ADE0008022A5621367236DD4E9121233440A440A
:10ADF000934208BF0B464B45236505D101232046EE
:10AE000084F85430FFF7CAFE207DFBF7AFFF94F8BB
:10AE10009A303BB1B8F1000F04D0236E11212046C7
:10AE20005B689847DBF8003037B1039A3B449342A4
:10AE3000CBF80030FFF45AAFDBF80030002B14BF22
:10AE400000201B2007B0BDE8F08F0AF1010A0AF1CB
:10AE5000FF33994210D1C4F89CA01AF8013C112B81
:10AE600001D0132B14D1013FA3F111014B424B41EF
:10AE7000C14684F8A03072E71AF8013C03F0FD01E6
:10AE8000112906D1013FB9F1000F3FF468AFEBE79C
:10AE9000C14605F8013B62E73246284632F0C8F861
:10AEA00037466DE7238DC3F30A12154465F30E137D
:10AEB000238598E7207D95B93023434303F1A043D0
:10AEC00003F58023596E5A6EC1F30A1122F4FF4232
:10AED000314422F0700242EA01125A6683E7CDE95A
:10AEE00000644A462369216826F094FA3022237DC3
:10AEF000534303F1A04303F580235A6E22F48012DA
:10AF0000EBE792F8543037B5144633B1936D0BB17B
:10AF1000D06D9847002384F8543094F89A301BB3CE
:10AF20002046FFF753FDF8B1236E132120465B68DE
:10AF300098471025236E20461B680DF1070198479E
:10AF400078B99DF8073003F0FD02112A05D1A3F16D
:10AF500011025342534184F8A030013D15F0FF0522
:10AF6000E8D12046FFF71AFE002084F8540003B011
:10AF700030BD2DE9F74F002800F0F3807B49D1F870
:10AF8000CC339842C0F0EF80D1F8D02313449842DC
:10AF900080F0E980D1E9F84EEFF3118B302383F391
:10AFA000118810F8086C30F806CCF307A0F10805FA
:10AFB00002D5BCF1000F07D18BF31188BFF36F8F5F
:10AFC000012003B0BDE8F08FD1F8D433D1F8DC9381
:10AFD000A3EBCC0330F8048C0093C1F8D43309F10F
:10AFE00001030CF10102C1F8DC33B8F1000F3BD0D2
:10AFF000A5EBC803DF88B3F802A001971F7806F01D
:10B000000206FF0725D42EBB019EA6EB0A06012EE1
:10B010002AD1009E0CF10202A6F108075244C1F8A1
:10B02000DC93C1F8D47330F8028CB8F1000F1DD155
:10B0300010F8085C20F8068C68F3000500F8085C3E
:10B04000013A5A801A7868F300021A700022DA80F6
:10B050003FE04EB110F8086C42446FF3410600F82F
:10B06000086C00269E80DEE72B46DCE705EBC8096E
:10B07000D1E9F3673744B9450ED310F8085C013ABB
:10B080006FF3000500F8085C002520F8065C5A8084
:10B090001A7865F30002D8E715F838504E4615F0D7
:10B0A000010530D010F8085C013A6FF3000500F894
:10B0B000085C002592B220F8065C5A801A7865F385
:10B0C00000021A70C3F107023244C2F3CF02DA80E1
:10B0D000B280002C43D09C4241D86288002A08BF2D
:10B0E0001C46BEF1000F06D09E4504D3BEF80220D8
:10B0F000002A18BF7346C1E9F8438BF31188BFF3E8
:10B100006F8F00205DE7A8EB0C08B8F1010FC9D1E3
:10B11000B9F80270A9F802501744B9F80620E2B154
:10B1200009EBC2060025D1F8DC23013AC1F8DC2383
:10B13000D1F8D423083AC1F8D42310F8082C20F809
:10B14000065C6FF3000200F8082C1A785F8065F344
:10B1500000021A70002EB5D178E71646E2E71C46C9
:10B16000BFE722202DE700235B69FFDE08100020E7
:10B17000002313B5019369B160B101FB00F401A98B
:10B18000204627F061F9014620B9019810B1224606
:10B1900031F006F9019802B010BDFEE7002307B5B3
:10B1A000084601A9019327F04FF9019803B05DF813
:10B1B00004FB0846DDE608461146D9E70023036094
:10B1C0004360704700232DE9F347854F0193D7F87B
:10B1D000D0330C469A42104604D239B912B101A9B3
:10B1E00027F032F9019802B0BDE8F0871AB9084695
:10B1F000FFF7BFFEF6E7EFF31188302383F31188E2
:10B2000031F8063C07304FEAC30920F00705A9458D
:10B21000A1F1080C78D231F8022C002A62D0D11AA0
:10B2200001295FD10CEBC2061CF83220D20759D499
:10B230007188A9EB050212EBC10253D41F2A34DD39
:10B24000C5F3CF0324F8063C0133601924F8023C0F
:10B25000FFF7B4FFD30834F8022C43808280F288D1
:10B2600002B37188511A11FA83F39BB206EBC20242
:10B27000C38093800022314627F0A2F83046FFF7C2
:10B280009DFFD7F8D433D7F8D8232B44A3EB090379
:10B2900093420194C7F8D43333D888F31188BFF3AD
:10B2A0006F8F9FE70023C380E4E7D7F8DC230133E7
:10B2B000013AC7F8DC23F2880B4424F8063C6AB153
:10B2C0007188511A11FA83F39BB206EBC20224F87B
:10B2D000023C9380012231466046CDE7002324F8EA
:10B2E000023CF7E7284601A927F0AEF80028D4D1A0
:10B2F0004A462146019831F09BFE2046FFF739FE71
:10B30000CBE7C7F8D833C8E768D931F8021CA9EBF6
:10B3100005064A1ED21AB9B31CF831300CEBC10A2B
:10B32000DB0732D48ABBC5F3CF0324F8063C0133D4
:10B33000601924F8023CFFF741FF34F8022CBAF8F8
:10B3400002308280BAF8062003EBD6034380CAB1EC
:10B35000BAF80210511A11FA83F39BB20AEBC20237
:10B36000C38093800022514627F02AF85046FFF709
:10B3700025FFD7F8D43301941D44A5EB0905C7F880
:10B38000D4538AE7C280EDE78A46272EF1D9C5F368
:10B39000CF0324F8063C0133601924F8023CFFF780
:10B3A0000DFF013E34F8023CF60846808380BAF176
:10B3B000000F10D0013212FA86F6B6B2C680AAF893
:10B3C00004600022D7F8DC3311460133C7F8DC33C0
:10B3D00026F0F6FFCDE7A0F806A0F2E701915CE7C2
:10B3E0000810002003464160EFF3108072B6044A53
:10B3F000D2F8F4131960C2F8F43333F03ABD00BF49
:10B400000810002038B50F4CD4F8F8337BB901236D
:10B410004FF06042C4F8F833D2F8003E0A4943F4D2
:10B420008073C2F8003E04F57F70FFF7DBFF002554
:10B43000064B0748C4F80834C4F8105428F09FFDA0
:10B44000284638BD08100020F0470020A96A0008EF
:10B450000C1400200146EFF3108072B6084AD2F8AF
:10B46000F43302F57D722BB1994205D10B6813605C
:10B4700000230B6033F0FDBC1A461B68F3E700BFE6
:10B480000810002038B50446D0F8A4301D68AB6C15
:10B490005906FCD5002394F8AD101A4694F8AC0078
:10B4A000FEF792FA002394F8AF101A4694F8AE0013
:10B4B000FEF78AFA94F8B430DA0707D5002394F837
:10B4C000B1101A4694F8B000FEF77EFA94F8B43042
:10B4D0009B0707D5002394F8B3101A4694F8B200DE
:10B4E000FEF772FA012205F500531A650422284678
:10B4F0001A65FEF76BF80021D4F8A80033F074FC4D
:10B500000D4A04F1B800D2F8C43302F571713BB1B1
:10B5100098420DD1D4F8B8300B600023C4F8B8308D
:10B52000D2F8C43313B90548FFF794FF002038BDA3
:10B5300019461B68EBE700BF081000201C14002010
:10B540000246EFF3108072B60E4991F81C34FF2BBF
:10B5500002D1A2B133F08DBC1BB9002AFAD001226E
:10B5600003E0002A0CBFFF2201221344DBB281F862
:10B570001C34B3FA83F35B0981F81D34EAE71A46F9
:10B58000F3E700BF0810002010B50A4C94F83834D7
:10B5900073B194F839345BB131F042FE002384F882
:10B5A000393484F83A34012384F83B3484F83C3449
:10B5B00010BD00BF081000200122024B83F81E249A
:10B5C000704700BF081000202DE9F04FB54CA9B01E
:10B5D00094F83D34C3B90221B348B44AC4F8F033F7
:10B5E000121AC4E9F302013AD208C4E9F80084F857
:10B5F000E813FFF7E3FD428008220123C4E9F522A6
:10B60000C4F8DC3384F83D34EFF31183302282F345
:10B61000118894F83E24002A40F05D84012284F8C9
:10B620003E2483F31188BFF36F8F6FF0040210463E
:10B630000132052152B2FFF785F85D2AF7D14FF0AC
:10B64000004807224AF6CD36994F9A499A4BC7F8D7
:10B6500064804D6C0B200E64DA63FBF7B1F84B6825
:10B66000964823F4F87343F480734B6040F2091357
:10B670008B6040F203130B610023C7F864804A6CAF
:10B6800005F0010502F001020E640E6B370740F170
:10B690002B84834240F02584864B002A40F0388476
:10B6A0000DB1874A1A644FF00042864B81495D6EA6
:10B6B00003F580535A664AF6CD334E6C80200B64F6
:10B6C000FBF77EF80B6AF00723F00F0343F00C033F
:10B6D0000B6248BF7A4B7C4848BF0B64002DA2BF69
:10B6E0004FF00042794B5A6633F0CBFC784AD2F8DF
:10B6F0004C3113F4802300F00F844FF07E6292F8F7
:10B700009C3092F99C20002AB8BF25234FF40001F9
:10B71000674A022051664FF4D15102F5B8325162A6
:10B720006C494F2B486028BF4F23012001F5805101
:10B73000DBB24860116911F48031FBD143F48073AE
:10B74000536140F20143644E16AD936051600FCED9
:10B750000FC50FCE0FC596E8030085E803005C4BCC
:10B76000D3F84C21120300F1DB83D3F85031DBB264
:10B770005A4D8DF8713095F92420134483F3080352
:10B780008DF87030564B6B604E4B1B6F03F0070308
:10B79000032B01D131F0D6FC25F0A0FC032815D0F5
:10B7A0004FF48012424B16A85A6645F60E024D4BD6
:10B7B000C3F880204FF0A06203F580539A624FF4E3
:10B7C000803203F580539A62FDF7A0F94FF4C0224E
:10B7D0003F4BD3F89860364B5A6603F598335A6856
:10B7E000012A00F0A38325F079FC05280CD1002163
:10B7F0003D48FDF7A5FB334A136F43F4806313679D
:10B800004FF480322A4B1A672F68384B26F0407667
:10B810009F4202D8344825F0E9FD354BDA6812F032
:10B82000060FFBD19A689E6099684E4016F4F81F87
:10B830000DBF2D4E9A603E462E6025F04FFC052828
:10B840001DD131F07FFC8046FDF708FA0128D4BFF6
:10B85000012100214046FDF773FB4FF4C070FDF756
:10B86000C3FB2449174A884294BF00200120136F6C
:10B8700023F4806343EA80231367FDF777FDBE421C
:10B8800002D8002025F0B2FD4FF40022084E104BE4
:10B890001948D3F8C03072664FF0B44223F04073B9
:10B8A00093602BE008100020384E00200000082094
:10B8B00000900050008009500040005040420F00AE
:10B8C0003254FFFF00800050044F040800A00050D5
:10B8D0000080E00F00100250084F0408C847002005
:10B8E000C01753020040005A00B4C404FFB3C4049C
:10B8F0000000015080F0FA02304F040833F0C1FB21
:10B900004FF4800302227366C74B5A609A6812F4A0
:10B9100080320592FAD15A62059A5A60FDF736FDD7
:10B9200007F098FEEFF3108772B6C04833F0A9FB1A
:10B9300094F83F34FBB9BE4833F0A3FBBD4BBE4A7D
:10B94000DA610122C3F844214FF4807203F5EA233F
:10B950009A64059BC4F84034C4F8F433D4F84834EE
:10B96000C4F84434B54B5A6F42F001025A67DA6E9C
:10B9700022F03002DA664FF00008404684F84C842A
:10B9800025F034FD95F83C30D4F844649BB1AB49C4
:10B99000D4F824244B6F23F440734B67B301A849B8
:10B9A00003F5742303F23F23B3FBF1F31344C4F80C
:10B9B000243485F83C804FF48011A24BD3F8002149
:10B9C000A14A51664FF4003151661A6F02F0070226
:10B9D000C4F82C24196F032A01F47441C4F85014DC
:10B9E0009A49896901F00200C1F3400184F82914E1
:10B9F0000CD0D3F8202102F00702022A06D0D3F897
:10BA0000282102F00702022A40F09682012384F8DE
:10BA10001E34002840F09F82D4F844348849C3EB98
:10BA2000431202F5742202F23F22B2FBF1F2D4F883
:10BA300024040244C4F824244FF4C872534303F589
:10BA4000742303F23F23B3FBF1F3C4F8543401230E
:10BA5000384684F83F3433F00CFA2A6C511C08BF86
:10BA6000764B4FF4003108BFD3F894204FF05023A9
:10BA700008BF2A641967D30700F1A08201210C4690
:10BA8000084604FA00F3134001F1010100F0D082EE
:10BA90006F4B03EB4003B3F85C316E49062BB1F8F2
:10BAA0009C206D4CB1F89E1040F0C9824FF20F03FC
:10BAB000994240F0C182B2F5406F28BF4FF4C06296
:10BAC0004CF23C33A4F85824624AA2F89E30634AF0
:10BAD000536A43F470235362EFF308834FF0CD3180
